{
  "contractName": "Ballot",
  "abi": [
    {
      "constant": true,
      "inputs": [
        {
          "name": "_candidateId",
          "type": "uint8"
        }
      ],
      "name": "getCandidateById",
      "outputs": [
        {
          "name": "candidateId",
          "type": "uint8"
        },
        {
          "name": "totalVotes",
          "type": "uint16"
        },
        {
          "name": "candidateName",
          "type": "bytes32"
        }
      ],
      "payable": false,
      "type": "function",
      "stateMutability": "view"
    },
    {
      "constant": false,
      "inputs": [
        {
          "name": "_stationAddress",
          "type": "address"
        }
      ],
      "name": "addVotingStation",
      "outputs": [],
      "payable": false,
      "type": "function",
      "stateMutability": "nonpayable"
    },
    {
      "constant": false,
      "inputs": [
        {
          "name": "_displayName",
          "type": "bytes32"
        }
      ],
      "name": "stopBallot",
      "outputs": [],
      "payable": false,
      "type": "function",
      "stateMutability": "nonpayable"
    },
    {
      "constant": false,
      "inputs": [
        {
          "name": "_displayName",
          "type": "bytes32"
        }
      ],
      "name": "addCandidate",
      "outputs": [
        {
          "name": "index",
          "type": "uint256"
        },
        {
          "name": "mnemonic",
          "type": "bytes32"
        },
        {
          "name": "candidateId",
          "type": "uint8"
        }
      ],
      "payable": false,
      "type": "function",
      "stateMutability": "nonpayable"
    },
    {
      "constant": true,
      "inputs": [
        {
          "name": "_mnemonic",
          "type": "bytes32"
        }
      ],
      "name": "getVoteByMnemonic",
      "outputs": [
        {
          "name": "index",
          "type": "uint256"
        },
        {
          "name": "mnemonic",
          "type": "bytes32"
        },
        {
          "name": "candidateId",
          "type": "uint8"
        }
      ],
      "payable": false,
      "type": "function",
      "stateMutability": "view"
    },
    {
      "constant": false,
      "inputs": [],
      "name": "startBallot",
      "outputs": [
        {
          "name": "nr",
          "type": "uint256"
        }
      ],
      "payable": false,
      "type": "function",
      "stateMutability": "nonpayable"
    },
    {
      "constant": true,
      "inputs": [
        {
          "name": "_mnemHash",
          "type": "bytes32"
        },
        {
          "name": "_candidateId",
          "type": "uint8"
        }
      ],
      "name": "getNrOfCandidates",
      "outputs": [
        {
          "name": "nr",
          "type": "uint256"
        }
      ],
      "payable": false,
      "type": "function",
      "stateMutability": "view"
    },
    {
      "constant": false,
      "inputs": [
        {
          "name": "_mnemHash",
          "type": "bytes32"
        },
        {
          "name": "_candidateId",
          "type": "uint8"
        }
      ],
      "name": "vote",
      "outputs": [],
      "payable": false,
      "type": "function",
      "stateMutability": "nonpayable"
    },
    {
      "constant": false,
      "inputs": [
        {
          "name": "_passportHash",
          "type": "bytes32"
        }
      ],
      "name": "registerPassportHash",
      "outputs": [
        {
          "name": "",
          "type": "bool"
        }
      ],
      "payable": false,
      "type": "function",
      "stateMutability": "nonpayable"
    },
    {
      "inputs": [
        {
          "name": "_stationAddress",
          "type": "address"
        }
      ],
      "payable": false,
      "type": "function",
      "stateMutability": "view",
      "constant": true,
      "name": "wasStationRegistered",
      "outputs": [
        {
          "name": "",
          "type": "bool"
        }
      ]
    },
    {
      "anonymous": false,
      "inputs": [
        {
          "indexed": false,
          "name": "_stationAddresses",
          "type": "address[]"
        },
        {
          "indexed": false,
          "name": "eventType",
          "type": "uint8"
        }
      ],
      "name": "EventNotification",
      "type": "constructor",
      "payable": false,
      "stateMutability": "nonpayable"
    },
    {
      "anonymous": false,
      "inputs": [
        {
          "indexed": false,
          "name": "sender",
          "type": "address"
        },
        {
          "indexed": false,
          "name": "eventType",
          "type": "uint8"
        }
      ],
      "name": "EventNotification",
      "type": "event"
    }
  ],
  "bytecode": "0x6060604052341561000f57600080fd5b604051610dd9380380610dd9833981016040528080518201919050506000336000806101000a81548173ffffffffffffffffffffffffffffffffffffffff021916908373ffffffffffffffffffffffffffffffffffffffff1602179055506000600281111561007a57fe5b600060146101000a81548160ff021916908360ff160217905550600090505b81518110156100e2576100d582828151811015156100b357fe5b906020019060200201516100e964010000000002610354176401000000009004565b8080600101915050610099565b5050610229565b6000809054906101000a900473ffffffffffffffffffffffffffffffffffffffff1673ffffffffffffffffffffffffffffffffffffffff163373ffffffffffffffffffffffffffffffffffffffff1614151561014457600080fd5b6000600281111561015157fe5b600060149054906101000a900460ff1660ff1614151561017057600080fd5b60001515600160008373ffffffffffffffffffffffffffffffffffffffff1673ffffffffffffffffffffffffffffffffffffffff16815260200190815260200160002060009054906101000a900460ff1615151415156101cf57600080fd5b60018060008373ffffffffffffffffffffffffffffffffffffffff1673ffffffffffffffffffffffffffffffffffffffff16815260200190815260200160002060006101000a81548160ff02191690831515021790555050565b610ba1806102386000396000f3006060604052600436106100a3576000357c0100000000000000000000000000000000000000000000000000000000900463ffffffff1680629d5826146100a857806307bc1dc0146101065780631719d7261461013f578063230d6ed814610154578063428117df1461017b578063452ddecc146101d2578063a927c564146101e7578063c9a28cb914610210578063cf3890c514610243578063ecd4aace1461026a575b600080fd5b34156100b357600080fd5b6100cc600480803560ff169060200190919050506102bb565b604051808460ff1660ff1681526020018361ffff1661ffff1681526020018260001916600019168152602001935050505060405180910390f35b341561011157600080fd5b61013d600480803573ffffffffffffffffffffffffffffffffffffffff16906020019091905050610354565b005b341561014a57600080fd5b610152610494565b005b341561015f57600080fd5b6101796004808035600019169060200190919050506104e8565b005b341561018657600080fd5b6101a0600480803560001916906020019091905050610625565b6040518084815260200183600019166000191681526020018260ff1660ff168152602001935050505060405180910390f35b34156101dd57600080fd5b6101e56106fd565b005b34156101f257600080fd5b6101fa6107ad565b6040518082815260200191505060405180910390f35b341561021b57600080fd5b61024160048080356000191690602001909190803560ff169060200190919050506107bd565b005b341561024e57600080fd5b6102686004808035600019169060200190919050506108ff565b005b341561027557600080fd5b6102a1600480803573ffffffffffffffffffffffffffffffffffffffff169060200190919050506109ef565b604051808215151515815260200191505060405180910390f35b600080600060048460ff168154811015156102d257fe5b906000526020600020906003020160000160009054906101000a900460ff1660048560ff1681548110151561030357fe5b906000526020600020906003020160020160009054906101000a900461ffff1660048660ff1681548110151561033557fe5b9060005260206000209060030201600101549250925092509193909250565b6000809054906101000a900473ffffffffffffffffffffffffffffffffffffffff1673ffffffffffffffffffffffffffffffffffffffff163373ffffffffffffffffffffffffffffffffffffffff161415156103af57600080fd5b600060028111156103bc57fe5b600060149054906101000a900460ff1660ff161415156103db57600080fd5b60001515600160008373ffffffffffffffffffffffffffffffffffffffff1673ffffffffffffffffffffffffffffffffffffffff16815260200190815260200160002060009054906101000a900460ff16151514151561043a57600080fd5b60018060008373ffffffffffffffffffffffffffffffffffffffff1673ffffffffffffffffffffffffffffffffffffffff16815260200190815260200160002060006101000a81548160ff02191690831515021790555050565b600160028111156104a157fe5b600060149054906101000a900460ff1660ff161415156104c057600080fd5b6002808111156104cc57fe5b600060146101000a81548160ff021916908360ff160217905550565b60008060009054906101000a900473ffffffffffffffffffffffffffffffffffffffff1673ffffffffffffffffffffffffffffffffffffffff163373ffffffffffffffffffffffffffffffffffffffff1614151561054557600080fd5b6000600281111561055257fe5b600060149054906101000a900460ff1660ff1614151561057157600080fd5b60048054905090506004805480600101828161058d9190610a45565b916000526020600020906003020160006060604051908101604052808560ff16815260200186600019168152602001600061ffff16815250909190915060008201518160000160006101000a81548160ff021916908360ff1602179055506020820151816001019060001916905560408201518160020160006101000a81548161ffff021916908361ffff1602179055505050505050565b6000806000610632610a77565b600560036000876000191660001916815260200190815260200160002060009054906101000a900461ffff1661ffff1681548110151561066e57fe5b9060005260206000209060030201606060405190810160405290816000820160009054906101000a900461ffff1661ffff1661ffff1681526020016001820154600019166000191681526020016002820160009054906101000a900460ff1660ff1660ff168152505090508060000151816020015182604001518261ffff169250935093509350509193909250565b6000809054906101000a900473ffffffffffffffffffffffffffffffffffffffff1673ffffffffffffffffffffffffffffffffffffffff163373ffffffffffffffffffffffffffffffffffffffff1614151561075857600080fd5b6000600281111561076557fe5b600060149054906101000a900460ff1660ff1614151561078457600080fd5b6001600281111561079157fe5b600060146101000a81548160ff021916908360ff160217905550565b600060048054905060ff16905090565b60006005805490509050600580548060010182816107db9190610aa3565b916000526020600020906003020160006060604051908101604052808561ffff168152602001876000191681526020018660ff16815250909190915060008201518160000160006101000a81548161ffff021916908361ffff1602179055506020820151816001019060001916905560408201518160020160006101000a81548160ff021916908360ff16021790555050505060048260ff1681548110151561088057fe5b9060005260206000209060030201600201600081819054906101000a900461ffff168092919060010191906101000a81548161ffff021916908361ffff160217905550508060036000856000191660001916815260200190815260200160002060006101000a81548161ffff021916908361ffff160217905550505050565b6001600281111561090c57fe5b600060149054906101000a900460ff1660ff1614151561092b57600080fd5b600160003373ffffffffffffffffffffffffffffffffffffffff1673ffffffffffffffffffffffffffffffffffffffff16815260200190815260200160002060009054906101000a900460ff16151561098357600080fd5b60026000826000191660001916815260200190815260200160002060009054906101000a900460ff161515156109b857600080fd5b600160026000836000191660001916815260200190815260200160002060006101000a81548160ff02191690831515021790555050565b6000600160008373ffffffffffffffffffffffffffffffffffffffff1673ffffffffffffffffffffffffffffffffffffffff16815260200190815260200160002060009054906101000a900460ff169050919050565b815481835581811511610a7257600302816003028360005260206000209182019101610a719190610ad5565b5b505050565b606060405190810160405280600061ffff16815260200160008019168152602001600060ff1681525090565b815481835581811511610ad057600302816003028360005260206000209182019101610acf9190610b25565b5b505050565b610b2291905b80821115610b1e57600080820160006101000a81549060ff021916905560018201600090556002820160006101000a81549061ffff021916905550600301610adb565b5090565b90565b610b7291905b80821115610b6e57600080820160006101000a81549061ffff021916905560018201600090556002820160006101000a81549060ff021916905550600301610b2b565b5090565b905600a165627a7a723058206ecbc3ccf7789fd46cd4e819953eaa4df711581ddd486a3da91536ef47dd4f8d0029",
  "source": "pragma solidity ^0.4.15;\n/*\nTODO list:\n  Constants / View / Pure\n  Overflows, underflows and secure casting uint -> uint8\n      Don't register new candidate if < 255\n  Handling in case called with bogus arguments\n*/\n\ncontract Ballot {\n\n  event EventNotification(address sender,uint8 eventType);\n  enum States {\n    PROVISIONING,\n    RUNNING,\n    FINISHED\n  }\n\n  address owner;\n  uint8 currentState;\n\n  struct Vote {\n    uint16 index;\n    bytes32 mnemonic;\n    uint8 candidateId;\n  }\n\n  struct Candidate {\n    uint8 candidateId;\n    bytes32 displayName;\n    uint16 totalVotes;\n  }\n\n  mapping(address => bool) isStationRegistered;\n  mapping(bytes32 => bool) wasPassportHashUsed;\n  mapping(bytes32 => uint16) voteIdByMnemonic;\n\n  Candidate[] registeredCandidates;\n  Vote[] votes;\n\n  modifier isProvisioning() {\n    require(currentState == uint(States.PROVISIONING));\n    _;\n  }\n\n  modifier isRunning() {\n    require(currentState == uint(States.RUNNING));\n    _;\n  }\n\n  modifier onlyOwner() {\n    require(msg.sender == owner);\n    _;\n  }\n\n  modifier onlyRegistered() {\n    require(isStationRegistered[msg.sender]);\n    _;\n  }\n\n  // TODO minimum running time.\n  function Ballot(address[] _stationAddresses) public {\n    owner = msg.sender;\n    currentState = uint8(States.PROVISIONING);\n\n    for (uint i = 0; i < _stationAddresses.length; i++) {\n      addVotingStation(_stationAddresses[i]);\n     }\n  }\n\n  function addVotingStation(address _stationAddress) onlyOwner() isProvisioning() public {\n    require(isStationRegistered[_stationAddress] == false);\n    isStationRegistered[_stationAddress] = true;\n  }\n\n    // TODO check if already added.\n  function addCandidate(bytes32 _displayName) onlyOwner() isProvisioning() public {\n    uint8 candidateId = uint8(registeredCandidates.length);\n\n    registeredCandidates.push(Candidate({\n      displayName: _displayName,\n      totalVotes: 0,\n      candidateId: candidateId\n    }));\n  }\n\n  function startBallot() onlyOwner() isProvisioning() public {\n    currentState = uint8(States.RUNNING);\n  }\n\n  /*\n    Register a vote casted from a voting station.\n    @param _mnemHash - 32 byte keccak256 hash of the mnemonic supplied\n      by the user when voting.\n    @param _passportHash - 32 byte keccak256 hash of the passport number\n      of the voting citizen.\n    @param _candidateId - a numeric identifier of the chosen candidate.\n\n    @throws Will revert in case the passport hash has already been registered.\n    @throws Will revert in case the candidate id is out of bounds.\n    @throws Will revert in case the calling ethereum account is not a voting station.\n  */\n\n  function vote(bytes32 _mnemHash, uint8 _candidateId) public\n   // isRunning()\n   // onlyRegistered()\n  {\n    // require(_candidateId < registeredCandidates.length);\n\n    uint16 index = uint16(votes.length);\n\n    votes.push(Vote({\n      index: index,\n      mnemonic: _mnemHash,\n      candidateId: _candidateId\n    }));\n\n    registeredCandidates[_candidateId].totalVotes ++;\n    voteIdByMnemonic[_mnemHash] = index;\n  }\n\n  function registerPassportHash(bytes32 _passportHash) \n    isRunning()\n    onlyRegistered()\n    public\n  {\n    require(!wasPassportHashUsed[_passportHash]);\n    wasPassportHashUsed[_passportHash] = true;\n  }\n\n  function stopBallot () isRunning() public {\n    currentState = uint8(States.FINISHED);\n  }\n\n  // RETRIEVAL FUNCTIONS\n\n  function getCandidateById (uint8 _candidateId) constant public returns(uint8 candidateId, uint16 totalVotes, bytes32 candidateName) {\n    return (\n      registeredCandidates[_candidateId].candidateId,\n      registeredCandidates[_candidateId].totalVotes,\n      registeredCandidates[_candidateId].displayName\n    );\n  }\n\n  function getVoteByMnemonic(bytes32 _mnemonic) constant public returns (uint index, bytes32 mnemonic, uint8 candidateId) {\n    Vote memory castedVote = votes[voteIdByMnemonic[_mnemonic]];\n    return (\n      castedVote.index,\n      castedVote.mnemonic,\n      castedVote.candidateId\n    );\n  }\n\n  function getNrOfCandidates() constant public returns (uint nr) {\n    return uint8(registeredCandidates.length);\n  }\n\n  // Usefull for tests, any other reason to keep?\n  function wasStationRegistered(address _stationAddress) constant public returns(bool) {\n    return isStationRegistered[_stationAddress];\n  }\n}\n",
  "sourcePath": "/home/eugen/Documents/University/b.a. paper/code/Blockchain-Voting/smart-contracts/contracts/Ballot.sol",
  "compiler": {
    "name": "solc",
    "version": "0.4.18+commit.9cf6e910.Emscripten.clang"
  },
  "schemaVersion": "1.0.1",
  "updatedAt": "2017-12-28T13:14:19.100Z"
}